:020000040800F2
:1000000000C00020E16B0008F1620008FD620008FA
:1000100003630008096300080F6300080000000084
:100020000000000000000000000000001563000850
:1000300021630008000000002D63000839630008F8
:10004000296C0008296C0008296C0008296C00083C
:10005000296C0008296C0008296C0008296C00082C
:10006000296C0008296C0008296C0008296C00081C
:100070004563000859630008296C0008296C0008D2
:10008000296C0008296C0008296C0008296C0008FC
:10009000296C0008296C0008296C0008296C0008EC
:1000A000296C0008296C0008296C0008296C0008DC
:1000B000296C00086D630008296C0008296C000891
:1000C000296C0008296C0008296C0008296C0008BC
:1000D000296C0008296C0008296C0008816300085D
:1000E000296C0008296C0008296C0008296C00089C
:1000F000296C0008296C0008296C0008296C00088C
:10010000296C0008296C0008A1630008296C00080C
:10011000B5630008296C0008296C0008296C0008E8
:10012000296C0008296C0008D5630008E963000801
:1001300000000000000000000000000000000000BF
:1001400000000000000000000000000000000000AF
:10015000000000000000000000000000000000009F
:10016000000000000000000000000000000000008F
:10017000000000000000000000000000000000007F
:10018000000000000000000000000000000000006F
:10019000000000000000000000000000000000005F
:1001A000000000000000000000000000000000004F
:1001B000000000000000000000000000000000003F
:1001C000000000000000000000000000000000002F
:1001D000000000000000000000000000000000001F
:0401E0005FF8E0F1F3
:1001E80010B5054C237833B9044B13B10448AFF369
:1001F80000800123237010BD580200200000000079
:10020800B897000808B5034B1BB103490348AFF37F
:10021800008008BD000000005C020020B8970008BC
:10022800034613F8012B002AFBD1181A013870472E
:1002380081F0004102E000BF83F0004330B54FEA8F
:1002480041044FEA430594EA050F08BF90EA020FFC
:100258001FBF54EA000C55EA020C7FEA645C7FEA8F
:10026800655C00F0E2804FEA5454D4EB5555B8BFB2
:100278006D420CDD2C4480EA020281EA030382EA23
:10028800000083EA010180EA020281EA0303362DB5
:1002980088BF30BD11F0004F4FEA01314FF4801C88
:1002A8004CEA113102D0404261EB410113F0004F9A
:1002B8004FEA03334CEA133302D0524263EB430351
:1002C80094EA050F00F0A780A4F10104D5F1200EEF
:1002D8000DDB02FA0EFC22FA05F2801841F100014A
:1002E80003FA0EF2801843FA05F359410EE0A5F11E
:1002F80020050EF1200E012A03FA0EFC28BF4CF04F
:10030800020C43FA05F3C01851EBE37101F0004504
:1003180007D54FF0000EDCF1000C7EEB00006EEB11
:100328000101B1F5801F1BD3B1F5001F0CD349089B
:100338005FEA30004FEA3C0C04F101044FEA4452F2
:1003480012F5800F80F09A80BCF1004F08BF5FEA79
:10035800500C50F1000041EB045141EA050130BD59
:100368005FEA4C0C404141EB010111F4801FA4F1FC
:100378000104E9D191F0000F04BF01460020B1FA51
:1003880081F308BF2033A3F10B03B3F120020CDA89
:100398000C3208DD02F1140CC2F10C0201FA0CF067
:1003A80021FA02F10CE002F11402D8BFC2F1200CCC
:1003B80001FA02F120FA0CFCDCBF41EA0C01904082
:1003C800E41AA2BF01EB0451294330BD6FEA0404CB
:1003D8001F3C1CDA0C340EDC04F11404C4F12002B6
:1003E80020FA04F001FA02F340EA030021FA04F3C8
:1003F80045EA030130BDC4F10C04C4F1200220FA1F
:1004080002F001FA04F340EA0300294630BD21FA5C
:1004180004F0294630BD94F0000F83F4801306BF22
:1004280081F480110134013D4EE77FEA645C18BF16
:100438007FEA655C29D094EA050F08BF90EA020FAD
:1004480005D054EA000C04BF1946104630BD91EAA5
:10045800030F1EBF0021002030BD5FEA545C05D1A8
:100468004000494128BF41F0004130BD14F58004E7
:100478003CBF01F5801130BD01F0004545F0FE415B
:1004880041F470014FF0000030BD7FEA645C1ABF90
:10049800194610467FEA655C1CBF0B46024650EAC7
:1004A800013406BF52EA033591EA030F41F40021F3
:1004B80030BD00BF90F0000F04BF0021704730B579
:1004C8004FF4806404F132044FF000054FF000014E
:1004D80050E700BF90F0000F04BF0021704730B50F
:1004E8004FF4806404F1320410F0004548BF4042E4
:1004F8004FF000013EE700BF42004FEAE2014FEA39
:1005080031014FEA02701FBF12F07F4393F07F4F13
:1005180081F06051704792F0000F14BF93F07F4F45
:10052800704730B54FF4607401F0004521F0004188
:1005380020E700BF50EA010208BF704730B54FF00E
:1005480000050AE050EA010208BF704730B511F013
:10055800004502D5404261EB41014FF4806404F14B
:1005680032045FEA915C3FF4DCAE4FF003025FEACD
:10057800DC0C18BF03325FEADC0C18BF033202EB55
:10058800DC02C2F1200300FA03FC20FA02F001FAAF
:1005980003FE40EA0E0021FA02F11444C1E600BF4E
:1005A80070B54FF0FF0C4CF4E06C1CEA11541DBF01
:1005B8001CEA135594EA0C0F95EA0C0F00F0DEF8CC
:1005C8002C4481EA030621EA4C5123EA4C5350EAB1
:1005D800013518BF52EA033541F4801143F4801302
:1005E80038D0A0FB02CE4FF00005E1FB02E506F093
:1005F8000042E0FB03E54FF00006E1FB03569CF0E8
:10060800000F18BF4EF0010EA4F1FF04B6F5007FED
:1006180064F5407404D25FEA4E0E6D4146EB06065F
:1006280042EAC62141EA55514FEAC52040EA5E50E8
:100638004FEACE2EB4F1FD0C88BFBCF5E06F1ED892
:10064800BEF1004F08BF5FEA500E50F1000041EBC9
:10065800045170BD06F0004646EA010140EA020076
:1006680081EA0301B4EB5C04C2BFD4EB0C0541EA98
:10067800045170BD41F480114FF0000E013C00F3AD
:10068800AB8014F1360FDEBF002001F0004170BDD1
:10069800C4F10004203C35DA0C341BDC04F11404EA
:1006A800C4F1200500FA05F320FA04F001FA05F276
:1006B80040EA020001F0004221F0004110EBD37043
:1006C80021FA04F642EB06015EEA430E08BF20EA6F
:1006D800D37070BDC4F10C04C4F1200500FA04F312
:1006E80020FA05F001FA04F240EA020001F00041A4
:1006F80010EBD37041F100015EEA430E08BF20EA17
:10070800D37070BDC4F1200500FA05F24EEA020E5E
:1007180020FA04F301FA05F243EA020321FA04F08D
:1007280001F0004121FA04F220EA020000EBD37044
:100738005EEA430E08BF20EAD37070BD94F0000F44
:100748000FD101F00046400041EB010111F4801F78
:1007580008BF013CF7D041EA060195F0000F18BF29
:10076800704703F00046520043EB030313F4801F65
:1007780008BF013DF7D043EA0603704794EA0C0F1F
:100788000CEA135518BF95EA0C0F0CD050EA410635
:1007980018BF52EA4306D1D181EA030101F00041B2
:1007A8004FF0000070BD50EA410606BF10461946DA
:1007B80052EA430619D094EA0C0F02D150EA0136E6
:1007C80013D195EA0C0F05D152EA03361CBF104627
:1007D80019460AD181EA030101F0004141F0FE41C6
:1007E80041F470014FF0000070BD41F0FE4141F44A
:1007F800780170BD70B54FF0FF0C4CF4E06C1CEA4A
:1008080011541DBF1CEA135594EA0C0F95EA0C0FFE
:1008180000F0A7F8A4EB050481EA030E52EA0335B9
:100828004FEA013100F088804FEA03334FF08055DA
:1008380045EA131343EA12634FEA022245EA111507
:1008480045EA10654FEA00260EF000419D4208BFB8
:10085800964244F1FD0404F5407402D25B084FEA65
:100868003202B61A65EB03055B084FEA32024FF411
:1008780080104FF4002CB6EB020E75EB030E22BF6E
:10088800B61A754640EA0C005B084FEA3202B6EB2E
:10089800020E75EB030E22BFB61A754640EA5C00DD
:1008A8005B084FEA3202B6EB020E75EB030E22BF6D
:1008B800B61A754640EA9C005B084FEA3202B6EB6E
:1008C800020E75EB030E22BFB61A754640EADC002D
:1008D80055EA060E18D04FEA051545EA16754FEA8F
:1008E80006164FEAC30343EA52734FEAC2025FEAAD
:1008F8001C1CC0D111F4801F0BD141EA00014FF03C
:1009080000004FF0004CB6E711F4801F04BF01430C
:100918000020B4F1FD0C88BFBCF5E06F3FF6AFAE28
:10092800B5EB030C04BFB6EB020C5FEA500C50F1B8
:10093800000041EB045170BD0EF0004E4EEA11313B
:1009480014EB5C04C2BFD4EB0C0541EA045170BD42
:1009580041F480114FF0000E013C90E645EA060E86
:100968008DE60CEA135594EA0C0F08BF95EA0C0FB4
:100978003FF43BAF94EA0C0F0AD150EA01347FF4FC
:1009880034AF95EA0C0F7FF425AF104619462CE7D3
:1009980095EA0C0F06D152EA03353FF4FDAE104636
:1009A800194622E750EA410618BF52EA43067FF487
:1009B800C5AE50EA41047FF40DAF52EA43057FF417
:1009C800EBAE12E74FF0FF3C06E000BF4FF0010C22
:1009D80002E000BF4FF0010C4DF804CD4FEA410C86
:1009E8007FEA6C5C4FEA430C18BF7FEA6C5C1BD053
:1009F80001B050EA410C0CBF52EA430C91EA030FD4
:100A080002BF90EA020F0020704710F1000F91EA30
:100A1800030F58BF994208BF90422CBFD8176FEAFE
:100A2800E37040F0010070474FEA410C7FEA6C5CCC
:100A380002D150EA013C07D14FEA430C7FEA6C5CD3
:100A4800D6D152EA033CD3D05DF8040B704700BFFF
:100A58008446104662468C461946634600E000BF4D
:100A680001B5FFF7B7FF002848BF10F1000F01BD1F
:100A78004DF808EDFFF7F4FF0CBF012000205DF8EA
:100A880008FB00BF4DF808EDFFF7EAFF34BF01206F
:100A980000205DF808FB00BF4DF808EDFFF7E0FF08
:100AA80094BF012000205DF808FB00BF4DF808ED59
:100AB800FFF7CEFF94BF012000205DF808FB00BFC0
:100AC8004DF808EDFFF7C4FF34BF012000205DF8A2
:100AD80008FB00BF4FEA410C7FEA6C5C02D150EA88
:100AE800013C0AD14FEA430C7FEA6C5C02D152EA1E
:100AF800033C02D14FF0000070474FF001007047EF
:100B08004FEA410212F5001215D211D56FF478732D
:100B1800B3EB625212D94FEAC12343F0004343EAD0
:100B2800505311F0004F23FA02F018BF40427047AB
:100B38004FF00000704750EA013005D111F0004035
:100B480008BF6FF0004070474FF00000704700BFCB
:100B58004FEA4102B2F1E04324BFB3F5001CDCF1D7
:100B6800FE5C0DD901F0004C4FEAC0024CEA50700F
:100B7800B2F1004F40EB830008BF20F0010070473E
:100B880011F0804F21D113F13872BCBF01F0004041
:100B9800704741F480114FEA5252C2F11802C2F173
:100BA800200C10FA0CF320FA02F018BF40F00100F4
:100BB8004FEAC1234FEAD32303FA0CFC40EA0C00A6
:100BC80023FA02F34FEA4303CCE77FEA625307D1E3
:100BD80050EA01331EBF4FF0FE4040F4400070471A
:100BE80001F0004040F0FE4040F40000704700BFB4
:100BF80080F0004002E000BF81F0004142001FBFCA
:100C08005FEA410392EA030F7FEA226C7FEA236CD2
:100C18006AD04FEA1262D2EB1363C1BFD2184140C7
:100C280048404140B8BF5B42192B88BF704710F05D
:100C3800004F40F4000020F07F4018BF404211F000
:100C4800004F41F4000121F07F4118BF494292EA68
:100C5800030F3FD0A2F1010241FA03FC10EB0C0094
:100C6800C3F1200301FA03F100F0004302D5494221
:100C780060EB4000B0F5000F13D3B0F1807F06D3CE
:100C880040084FEA310102F10102FE2A51D2B1F1C6
:100C9800004F40EBC25008BF20F0010040EA0300BB
:100CA8007047490040EB000010F4000FA2F1010268
:100CB800EDD1B0FA80FCACF1080CB2EB0C0200FAF2
:100CC8000CF0AABF00EBC25052421843BCBFD04040
:100CD8001843704792F0000F81F4000106BF80F4BA
:100CE80000000132013BB5E74FEA41037FEA226C7D
:100CF80018BF7FEA236C21D092EA030F04D092F048
:100D0800000F08BF0846704790EA010F1CBF00207B
:100D1800704712F07F4F04D1400028BF40F00040D8
:100D2800704712F100723CBF00F50000704700F0F8
:100D3800004343F0FE4040F4000070477FEA22621F
:100D480016BF08467FEA23630146420206BF5FEAF0
:100D5800412390EA010F40F4800070474FF00003F0
:100D680004E000BF10F0004348BF40425FEA000CB7
:100D780008BF704743F0964301464FF000001CE05F
:100D880050EA010208BF70474FF000030AE000BFB5
:100D980050EA010208BF704711F0004302D54042F3
:100DA80061EB41015FEA010C02BF84460146002065
:100DB80043F0B64308BFA3F18053A3F50003BCFA80
:100DC8008CF2083AA3EBC25310DB01FA02FC63442D
:100DD80000FA02FCC2F12002BCF1004F20FA02F234
:100DE80043EB020008BF20F00100704702F1200227
:100DF80001FA02FCC2F1200250EA4C0021FA02F288
:100E080043EB020008BF20EADC70704742000ED2B4
:100E1800B2F1FE4F0BD34FF09E03B3EB126209D42D
:100E28004FEA002343F0004323FA02F070474FF0E3
:100E38000000704712F1610F01D1420202D14FF058
:100E4800FF3070474FF00000704700BF80B500AF1B
:100E5800084A084B1B6843F010031360032000F096
:100E680075F9002000F008F805F00CFA0023184680
:100E780080BD00BF0020024080B582B000AF78601E
:100E8800124B1A68124B1B7819464FF47A73B3FB4E
:100E9800F1F3B2FBF3F3184600F091F90346002B87
:100EA80001D001230EE07B680F2B0AD80022796855
:100EB8004FF0FF3000F055F9064A7B6813600023B5
:100EC80000E0012318460837BD4680BD8400002095
:100ED800040000200000002080B400AF054B1B7800
:100EE8001A46054B1B681344034A136000BFBD46EE
:100EF80080BC704704000020EC03002080B400AFE1
:100F0800024B1B681846BD4680BC7047EC030020A6
:100F180080B584B000AF7860FFF7F0FFB8607B68F9
:100F2800FB60FB68B3F1FF3F05D0094B1B781A46FD
:100F3800FB681344FB6000BFFFF7E0FF0246BB6895
:100F4800D21AFB689A42F7D300BF1037BD4680BD5E
:100F58000400002080B400AF024B1B681846BD4651
:100F680080BC7047E8F7FF1F80B400AF024B1B68D6
:100F78001846BD4680BC7047ECF7FF1F80B400AF31
:100F8800024B1B681846BD4680BC7047F0F7FF1F30
:100F980080B485B000AF78607B6803F00703FB601E
:100FA8000C4BDB68BB60BA684FF6FF031340BB60AD
:100FB800FB681A02BB68134343F0BF6343F4003372
:100FC800BB60044ABB68D36000BF1437BD4680BC11
:100FD800704700BF00ED00E080B400AF044BDB6851
:100FE8001B0A03F007031846BD4680BC704700BFC4
:100FF80000ED00E080B483B000AF0346FB7197F9C1
:101008000730002B0BDB084997F907305B09FA79A1
:1010180002F01F02012000FA02F241F8232000BF6B
:101028000C37BD4680BC704700E100E080B483B057
:1010380000AF03463960FB7197F90730002B0ADBD4
:101048000D4997F907303A68D2B21201D2B20B446F
:1010580083F800230AE00949FB7903F00F03043BF6
:101068003A68D2B21201D2B20B441A7600BF0C37DA
:10107800BD4680BC704700BF00E100E000ED00E025
:1010880080B489B000AFF860B9607A60FB6803F09B
:101098000703FB61FB69C3F10703042B28BF042383
:1010A800BB61FB690433062B02D9FB69033B00E0F3
:1010B80000237B610122BB6902FA03F35A1EBB6855
:1010C8001A407B699A4001217B6901FA03F3591E92
:1010D8007B680B40134318462437BD4680BC7047D5
:1010E80080B400AFBFF34F8F0549054BDB6803F4AD
:1010F800E062044B1343CB60BFF34F8F00BFFDE7A3
:1011080000ED00E00400FA0580B582B000AF786019
:101118007B68013BB3F1807F01D301230FE00A4ACA
:101128007B68013B53600F214FF0FF30FFF77EFFD4
:10113800054B00229A60044B07221A6000231846C8
:101148000837BD4680BD00BF10E000E080B582B022
:1011580000AF78607868FFF71BFF00BF0837BD460F
:1011680080BD80B586B000AF0346B9607A60FB7376
:1011780000237B61FFF730FF78617A68B968786986
:10118800FFF77EFF024697F90F3011461846FFF722
:101198004DFF00BF1837BD4680BD80B582B000AF97
:1011A8000346FB7197F907301846FFF723FF00BF86
:1011B8000837BD4680BD80B500AFFFF791FF80B509
:1011C80082B000AF78607868FFF79EFF0346184644
:1011D8000837BD4680BD000080B485B000AF786098
:1011E8000023FB607B68002B01D1012359E07B6859
:1011F8001B681A462D4B9A420FD87B681B681A4603
:101208002B4B13442B4AA2FB03231B099A007B6830
:101218001A647B68284ADA630EE07B681B681A4602
:10122800264B1344234AA2FB03231B099A007B681D
:101238001A647B68224ADA637B68022283F82120D9
:101248007B681B681B68FB60FB6823F47F5323F0F3
:101258003003FB607B685A687B689B681A437B682D
:10126800DB681A437B681B691A437B685B691A430E
:101278007B689B691A437B68DB691343FA681343ED
:10128800FB607B681B68FA681A607B6800229A63B7
:101298007B68012283F821207B68002283F82020C4
:1012A800002318461437BD4680BC70470704024027
:1012B800F8FFFDBFCDCCCCCC00000240F8FBFDBF51
:1012C8000004024080B586B000AFF860B9607A606B
:1012D8003B600023FB75FB6893F82030012B01D19C
:1012E80002234AE0FB68012283F82020FB6893F878
:1012F8002130012B3AD1FB68022283F82120FB68B8
:1013080000229A63FB681B68FA681268126822F068
:1013180001021A603B687A68B968F86800F0F2FB65
:10132800FB68DB6A002B08D0FB681B68FA68126848
:10133800126842F00E021A600FE0FB681B68FA6838
:101348001268126822F004021A60FB681B68FA68C7
:101358001268126842F00A021A60FB681B68FA6891
:101368001268126842F001021A6005E0FB68002268
:1013780083F820200223FB75FB7D18461837BD46ED
:1013880080BD80B485B000AF78600023FB737B68B4
:1013980093F82130022B08D07B6804229A637B687B
:1013A800002283F82020012320E07B681B687A68EC
:1013B8001268126822F00E021A607B681B687A684D
:1013C8001268126822F001021A607B68DB6B7A6887
:1013D800126C012101FA02F25A607B68012283F83B
:1013E80021207B68002283F82020FB7B18461437D5
:1013F800BD4680BC7047000080B584B000AF7860FF
:101408000023FB737B6893F82130022B05D07B689F
:1014180004229A630123FB73ECE07B681B687A68FB
:101428001268126822F00E021A607B681B687A68DC
:101438001268126822F001021A607B681B681A465B
:101448006F4B9A4263D96F4A7B681B6819466E4B8B
:10145800994259D07B681B6819466C4B994251D008
:101468007B681B6819466A4B994248D07B681B68A1
:101478001946684B99423FD07B681B681946664BF2
:10148800994236D07B681B681946644B99422DD027
:101498007B681B6819465A4B994224D07B681B68A5
:1014A80019465F4B99421CD07B681B6819465D4BF7
:1014B800994214D07B681B6819465B4B99420BD044
:1014C8007B681B681946594B994202D14FF48053E7
:1014D8001BE04FF4803318E04FF4807315E01023BD
:1014E80013E0012311E04FF080730EE04FF48013F6
:1014F8000BE04FF4803308E04FF4805305E04FF4DD
:10150800807302E0102300E00123536062E0484A40
:101518007B681B6819463C4B994259D07B681B680D
:1015280019463A4B994251D07B681B681946384B8B
:10153800994248D07B681B681946364B99423FD080
:101548007B681B681946344B994236D07B681B6808
:101558001946324B99422DD07B681B681946284B97
:10156800994224D07B681B6819462D4B99421CD0A0
:101578007B681B6819462B4B994214D07B681B6803
:101588001946294B99420BD07B681B681946274B93
:10159800994202D14FF480531BE04FF4803318E096
:1015A8004FF4807315E0102313E0012311E04FF08E
:1015B80080730EE04FF480130BE04FF4803308E0A3
:1015C8004FF4805305E04FF4807302E0102300E0ED
:1015D800012353607B68012283F821207B68002265
:1015E80083F820207B685B6B002B03D07B685B6BE8
:1015F80078689847FB7B18461037BD4680BD00BF0A
:101608008000024000040240080002401C00024022
:101618003000024044000240580002406C00024082
:10162800080402401C040240300402404404024002
:101638000000024080B584B000AF78607B68DB6B47
:101648001B68FB607B681B681B68BB607B681B6C46
:1016580004229A40FB681340002B00F00781BB6806
:1016680003F00403002B00F001817B681B681B68F2
:1016780003F02003002B07D17B681B687A68126887
:10168800126822F004021A607B681B681A466A4BCB
:101698009A4263D9694A7B681B681946684B994224
:1016A80059D07B681B681946664B994251D07B68B4
:1016B8001B681946644B994248D07B681B681946D9
:1016C800624B99423FD07B681B681946604B994230
:1016D80036D07B681B6819465E4B99422DD07B68D3
:1016E8001B681946544B994224D07B681B681946DD
:1016F800594B99421CD07B681B681946574B994235
:1017080014D07B681B681946554B99420BD07B68EF
:101718001B681946534B994202D14FF480431BE092
:101728004FF4802318E04FF4806315E0402313E062
:10173800042311E04FF080630EE04FF480030BE0C8
:101748004FF4802308E04FF4804305E04FF48063B2
:1017580002E0402300E00423536062E0424A7B68D1
:101768001B681946364B994259D07B681B68194645
:10177800344B994251D07B681B681946324B9942C9
:1017880048D07B681B681946304B99423FD07B682C
:101798001B6819462E4B994236D07B681B68194640
:1017A8002C4B99422DD07B681B681946224B9942D5
:1017B80024D07B681B681946274B99421CD07B684C
:1017C8001B681946254B994214D07B681B6819463B
:1017D800234B99420BD07B681B681946214B9942D1
:1017E80002D14FF480431BE04FF4802318E04FF4FC
:1017F800806315E0402313E0042311E04FF0806379
:101808000EE04FF480030BE04FF4802308E04FF420
:10181800804305E04FF4806302E0402300E00423A6
:1018280053607B68DB6A002B00F04C817B68DB6AC5
:101838007868984746E100BF8000024000040240F3
:10184800080002401C0002403000024044000240F0
:10185800580002406C000240080402401C04024088
:101868003004024044040240000002407B681B6CC4
:1018780002229A40FB681340002B00F0F380BB68FB
:1018880003F00203002B00F0ED807B681B681B68E7
:1018980003F02003002B0BD17B681B687A68126861
:1018A800126822F00A021A607B68012283F821205C
:1018B8007B681B681A46864B9A4263D9854A7B68BF
:1018C8001B681946844B994259D07B681B68194696
:1018D800824B994251D07B681B681946804B9942CC
:1018E80048D07B681B6819467E4B99423FD07B687D
:1018F8001B6819467C4B994236D07B681B68194691
:101908007A4B99422DD07B681B681946704B9942D7
:1019180024D07B681B681946754B99421CD07B689C
:101928001B681946734B994214D07B681B6819468B
:10193800714B99420BD07B681B6819466F4B9942D3
:1019480002D14FF400531BE04FF4003318E04FF47A
:10195800007315E0202313E0022311E04FF0007319
:101968000EE04FF400130BE04FF4003308E04FF49F
:10197800005305E04FF4007302E0202300E0022347
:10198800536062E05E4A7B681B681946524B994275
:1019980059D07B681B681946504B994251D07B68D7
:1019A8001B6819464E4B994248D07B681B681946FC
:1019B8004C4B99423FD07B681B6819464A4B994269
:1019C80036D07B681B681946484B99422DD07B68F6
:1019D8001B6819463E4B994224D07B681B68194600
:1019E800434B99421CD07B681B681946414B99426E
:1019F80014D07B681B6819463F4B99420BD07B6813
:101A08001B6819463D4B994202D14FF400531BE025
:101A18004FF4003318E04FF4007315E0202313E06F
:101A2800022311E04FF000730EE04FF400130BE0B7
:101A38004FF4003308E04FF4005305E04FF400730F
:101A480002E0202300E0022353607B68002283F831
:101A580020207B689B6A002B34D07B689B6A78685F
:101A680098472FE07B681B6C08229A40FB6813405C
:101A7800002B28D0BB6803F00803002B23D07B6819
:101A88001B687A681268126822F00E021A607B6876
:101A9800DB6B7A68126C012101FA02F25A607B68EA
:101AA80001229A637B68012283F821207B68002247
:101AB80083F820207B681B6B002B04D07B681B6B92
:101AC8007868984700BF00BF1037BD4680BD00BF8B
:101AD8008000024000040240080002401C0002404E
:101AE8003000024044000240580002406C000240AE
:101AF800080402401C04024030040240440402402E
:101B08000000024080B485B000AFF860B9607A6028
:101B18003B60FB68DB6BFA68126C012101FA02F288
:101B28005A60FB681B683A685A60FB685B68102B50
:101B380008D1FB681B687A689A60FB681B68BA68FA
:101B4800DA6007E0FB681B68BA689A60FB681B6884
:101B58007A68DA6000BF1437BD4680BC7047000061
:101B680080B48BB000AF7860396000237B620023BB
:101B78003B6233E101227B6A02FA03F3FB613B68B3
:101B88001A68FB691340BB61BA69FB699A4240F065
:101B980022813B685B68122B34D0122B0DD8022BA4
:101BA8002BD0022B04D8002B31D0012B1CD048E0BD
:101BB800032B43D0112B1BD043E08F4A934226D0EE
:101BC8008D4A934206D88D4A934220D08C4A93423C
:101BD8001DD036E08B4A934219D08B4A934216D0D7
:101BE8008A4A934213D02CE03B68DB683B6228E0CA
:101BF8003B68DB6804333B6223E03B68DB680833FF
:101C08003B621EE03B68DB680C333B6219E03B68D3
:101C18009B68002B02D104233B6212E03B689B685F
:101C2800012B05D108233B627B68FA691A6108E039
:101C380008233B627B68FA695A6102E000233B6231
:101C480000BFBB69FF2B01D87B6801E07B680433C8
:101C58007B61BB69FF2B02D87B6A9B0002E07B6A31
:101C6800083B9B003B617B691A680F213B6901FABD
:101C780003F3DB431A40396A3B6901FA03F31A4359
:101C88007B691A603B685B6803F08053002B00F0A7
:101C9800A2805F4A5E4B9B6943F0010393615C4BF2
:101CA8009B6903F00103BB60BB685A4A7B6A9B08C7
:101CB800023352F82330FB607B6A03F003039B0076
:101CC8000F2202FA03F3DB43FA681340FB607B68D8
:101CD800514A93421FD07B68504A934219D07B687F
:101CE8004F4A934213D07B684E4A93420DD07B688B
:101CF8004D4A934207D07B684C4A934201D1052351
:101D08000AE0062308E0042306E0032304E0022394
:101D180002E0012300E000237A6A02F00302920045
:101D28009340FA681343FB603A497B6A9B08023385
:101D3800FA6841F823203B685B6803F48033002B82
:101D480006D03B493A4B1A68BB6913430B6006E05F
:101D58003749374B1A68BB69DB4313400B603B6854
:101D68005B6803F40033002B06D03149304B5A68C6
:101D7800BB6913434B6006E02D492D4B5A68BB697C
:101D8800DB4313404B603B685B6803F48013002B14
:101D980006D02749264B9A68BB6913438B6006E037
:101DA8002349234B9A68BB69DB4313408B603B682C
:101DB8005B6803F40013002B06D01D491C4BDA683E
:101DC800BB691343CB6006E01949194BDA68BB6954
:101DD800DB431340CB607B6A01337B623B681A6844
:101DE8007B6A22FA03F3002B7FF4C4AE00BF2C37C2
:101DF800BD4680BC704700BF0000211000001110D4
:101E080000001210000031100000321000002210F3
:101E1800001002400000014000080140000C014091
:101E2800001001400014014000180140001C01404E
:101E38000004014080B483B000AF78600B467B801B
:101E480013467B707B78002B03D07A887B681A61F5
:101E580003E07B881A047B681A6100BF0C37BD4613
:101E680080BC704780B483B000AF78600B467B803D
:101E78007B68DA687B881340002B03D07A887B68FC
:101E88005A6102E07A887B681A6100BF0C37BD4648
:101E980080BC704780B584B000AF78607B68002B49
:101EA80001D101232BE07B681B684CF6CC421A60F9
:101EB8007B681B6845F255521A607B681B687A6814
:101EC80052685A607B681B687A6892689A60FFF764
:101ED80015F8F86008E0FFF711F80246FB68D31A16
:101EE800302B01D903230AE07B681B68DB68002BD1
:101EF800F1D17B681B684AF6AA221A6000231846AB
:101F08001037BD4680BD80B483B000AF78607B6871
:101F18001B684AF6AA221A60002318460C37BD46E9
:101F280080BC704780B400AF034B01221A6000BF29
:101F3800BD4680BC704700BF20000E4280B586B009
:101F480000AF78607B68002B01D101236CE27B68CD
:101F58001B6803F00103002B00F08780924B5B683D
:101F680003F00C03042B0CD08F4B5B6803F00C03BD
:101F7800082B12D18C4B5B6803F48033B3F5803F98
:101F88000BD1894B1B6803F40033002B6CD07B68A2
:101F98005B68002B68D1012346E27B685B68B3F578
:101FA800803F06D1804A804B1B6843F4803313601E
:101FB8002EE07B685B68002B0CD17B4A7A4B1B6850
:101FC80023F480331360784A774B1B6823F480230B
:101FD80013601DE07B685B68B3F5A02F0CD1724AD3
:101FE800714B1B6843F4802313606F4A6E4B1B6868
:101FF80043F4803313600BE06B4A6B4B1B6823F48C
:1020080080331360684A684B1B6823F4802313608D
:102018007B685B68002B13D0FEF770FF386108E01F
:10202800FEF76CFF02463B69D31A642B01D90323E0
:10203800FAE15D4B1B6803F40033002BF0D014E089
:10204800FEF75CFF386108E0FEF758FF02463B697F
:10205800D31A642B01D90323E6E1534B1B6803F41D
:102068000033002BF0D100E000BF7B681B6803F051
:102078000203002B63D04C4B5B6803F00C03002B6E
:102088000BD0494B5B6803F00C03082B1CD1464B63
:102098005B6803F48033002B16D1434B1B6803F0B5
:1020A8000203002B05D07B681B69012B01D001239B
:1020B800BAE13D493C4B1B6823F0F8027B685B6939
:1020C800DB0013430B603AE07B681B69002B20D0D0
:1020D800364B01221A60FEF711FF386108E0FEF75F
:1020E8000DFF02463B69D31A022B01D903239BE15A
:1020F8002D4B1B6803F00203002BF0D02A492A4B12
:102108001B6823F0F8027B685B69DB0013430B60F4
:1021180015E0264B00221A60FEF7F0FE386108E051
:10212800FEF7ECFE02463B69D31A022B01D90323C2
:102138007AE11D4B1B6803F00203002BF0D17B688A
:102148001B6803F00803002B3AD07B689B69002BBF
:1021580019D0174B01221A60FEF7D0FE386108E04B
:10216800FEF7CCFE02463B69D31A022B01D90323A2
:102178005AE10D4B5B6A03F00203002BF0D00120FB
:1021880000F0DAFA1CE00A4B00221A60FEF7B6FEED
:1021980038610FE0FEF7B2FE02463B69D31A022B04
:1021A80008D9032340E100BF00100240000042426A
:1021B800800442429E4B5B6A03F00203002BE9D184
:1021C8007B681B6803F00403002B00F0A680002343
:1021D800FB75974BDB6903F08053002B0DD1944AB4
:1021E800934BDB6943F08053D361914BDB6903F078
:1021F8008053BB60BB680123FB758E4B1B6803F4DF
:102208008073002B18D18B4A8A4B1B6843F4807368
:102218001360FEF773FE386108E0FEF76FFE0246B2
:102228003B69D31A642B01D90323FDE0814B1B685A
:1022380003F48073002BF0D07B68DB68012B06D198
:102248007B4A7B4B1B6A43F0010313622DE07B68DA
:10225800DB68002B0CD1764A754B1B6A23F001030F
:102268001362734A724B1B6A23F0040313621CE067
:102278007B68DB68052B0CD16D4A6D4B1B6A43F0FC
:10228800040313626A4A6A4B1B6A43F00103136230
:102298000BE0674A664B1B6A23F001031362644A2A
:1022A800634B1B6A23F0040313627B68DB68002B13
:1022B80015D0FEF723FE38610AE0FEF71FFE02463E
:1022C8003B69D31A41F28832934201D90323ABE028
:1022D800574B1B6A03F00203002BEED014E0FEF705
:1022E8000DFE38610AE0FEF709FE02463B69D31A83
:1022F80041F28832934201D9032395E04C4B1B6A83
:1023080003F00203002BEED1FB7D012B05D1484AD7
:10231800474BDB6923F08053D3617B68DB69002B73
:1023280000F08180424B5B6803F00C03082B61D0FE
:102338007B68DB69022B46D13F4B00221A60FEF70F
:10234800DDFD386108E0FEF7D9FD02463B69D31A86
:10235800022B01D9032367E0354B1B6803F0007398
:10236800002BF0D17B681B6AB3F5803F08D1304958
:102378002F4B5B6823F400327B689B6813434B60E8
:102388002B482B4B5B6823F474127B68196A7B68B3
:102398005B6A0B4313434360274B01221A60FEF725
:1023A800ADFD386108E0FEF7A9FD02463B69D31A86
:1023B800022B01D9032337E01D4B1B6803F0007380
:1023C800002BF0D02FE01C4B00221A60FEF796FD80
:1023D800386108E0FEF792FD02463B69D31A022BEA
:1023E80001D9032320E0124B1B6803F00073002B74
:1023F800F0D118E07B68DB69012B01D1012313E0E0
:102408000B4B5B68FB60FB6803F480327B681B6ADC
:102418009A4206D1FB6803F470127B685B6A9A42A1
:1024280001D0012300E0002318461837BD4680BDBF
:1024380000100240007000406000424280B584B045
:1024480000AF786039607B68002B01D10123D0E0B0
:102458006A4B1B6803F007023B689A4210D267492F
:10246800664B1B6823F007023B6813430B60634B02
:102478001B6803F007023B689A4201D00123B8E0C9
:102488007B681B6803F00203002B20D07B681B6865
:1024980003F00403002B05D0594A594B5B6843F4F9
:1024A800E06353607B681B6803F00803002B05D0CA
:1024B800534A534B5B6843F4605353605049504B45
:1024C8005B6823F0F0027B689B6813434B607B6872
:1024D8001B6803F00103002B40D07B685B68012B6D
:1024E80007D1474B1B6803F40033002B15D1012398
:1024F8007FE07B685B68022B07D1414B1B6803F0C8
:102508000073002B09D1012373E03D4B1B6803F0D6
:102518000203002B01D101236BE03949384B5B687A
:1025280023F003027B685B6813434B60FEF7E6FC0D
:10253800F8600AE0FEF7E2FC0246FB68D31A41F2B3
:102548008832934201D9032353E02D4B5B6803F093
:102558000C027B685B689B009A42EBD1274B1B6897
:1025680003F007023B689A4210D92449234B1B68A1
:1025780023F007023B6813430B60204B1B6803F0F2
:1025880007023B689A4201D0012332E07B681B684E
:1025980003F00403002B08D01949194B5B6823F496
:1025A800E0627B68DB6813434B607B681B6803F061
:1025B8000803002B09D01249114B5B6823F46052C1
:1025C8007B681B69DB0013434B6000F021F8014670
:1025D8000B4B5B681B0903F00F030A4AD35C21FA13
:1025E80003F3094A1360094B1B681846FEF744FCBD
:1025F800002318461037BD4680BD00BF00200240AA
:1026080000100240B89D000884000020000000204F
:1026180090B48AB000AF2A4B3C1D0FCB84E80F0062
:10262800284B1B883B800023FB610023BB610023F0
:102638007B6200237B6100233B62234B5B68FB6169
:10264800FB6903F00C03042B02D0082B03D02DE008
:102658001E4B3B622DE0FB699B0C03F00F0307F157
:102668002802134413F8243C7B61FB6903F480338C
:10267800002B13D0144B5B685B0C03F0010307F1CC
:102688002802134413F8283CBB617B690F4A02FBFC
:1026980003F2BB69B2FBF3F37B6204E07B690C4A8B
:1026A80002FB03F37B627B6A3B6202E0074B3B62FF
:1026B80000BF3B6A18462837BD4690BC704700BF2C
:1026C800D0970008E09700080010024000127A0036
:1026D80000093D0080B400AF024B1B681846BD4698
:1026E80080BC70478400002080B500AFFFF7F2FF80
:1026F8000146054B5B681B0A03F00703034AD35CDA
:1027080021FA03F3184680BD00100240C89D000856
:1027180080B500AFFFF7DEFF0146054B5B68DB0ABB
:1027280003F00703034AD35C21FA03F3184680BD7C
:1027380000100240C89D000880B485B000AF7860E2
:102748000A4B1B680A4AA2FB03235B0A7A6802FB4E
:1027580003F3FB6000BFFB685A1EFA60002BF9D137
:1027680000BF1437BD4680BC704700BF84000020FE
:10277800D34D621080B586B000AF786000233B610E
:102788000023FB607B681B6803F00103002B7DD0EE
:102798000023FB754F4BDB6903F08053002B0DD1F1
:1027A8004C4A4C4BDB6943F08053D361494BDB699E
:1027B80003F08053BB60BB680123FB75464B1B6865
:1027C80003F48073002B18D1434A434B1B6843F42E
:1027D80080731360FEF792FB386108E0FEF78EFB0A
:1027E80002463B69D31A642B01D903236DE03A4BA7
:1027F8001B6803F48073002BF0D0364B1B6A03F47C
:102808004073FB60FB68002B2ED07B685B6803F489
:102818004072FB689A4227D02E4B1B6A23F4407300
:10282800FB602E4B01221A602C4B00221A60294AA9
:10283800FB681362FB6803F00103002B14D0FEF75A
:102848005DFB38610AE0FEF759FB02463B69D31A83
:1028580041F28832934201D9032336E01D4B1B6AAB
:1028680003F00203002BEED01A491A4B1B6A23F41B
:1028780040727B685B6813430B62FB7D012B05D1BB
:10288800144A144BDB6923F08053D3617B681B68BF
:1028980003F00203002B08D00E490E4B5B6823F4AB
:1028A80040427B689B6813434B607B681B6803F05E
:1028B8001003002B08D00749064B5B6823F48002FD
:1028C8007B685B6913434B60002318461837BD4685
:1028D80080BD00BF0010024000700040400442422A
:1028E80090B58DB000AF78606B4B07F10C040FCB3F
:1028F80084E80F00694B1B883B8100237B6200231F
:10290800FB6200233B620023FB610023BB627B6800
:10291800013B0F2B00F2B68001A252F823F000BF52
:102928000B2A0008712A00088D2A0008FB290008D4
:102938008D2A00088D2A00088D2A0008032A00081D
:102948008D2A00088D2A00088D2A00088D2A000883
:102958008D2A00088D2A00088D2A00086929000898
:102968004F4B5B68FB614E4B1B6803F08073002B79
:1029780000F08A80FB699B0C03F00F0307F130021B
:10298800134413F8243C3B62FB6903F48033002BA7
:1029980018D0434B5B685B0C03F0010307F130026E
:1029A800134413F8283C7B62FB6903F48033002B43
:1029B8000DD03C4A7B6AB2FBF3F33A6A02FB03F39D
:1029C800FB6204E03B6A384A02FB03F3FB62344BC8
:1029D8005B6803F48003B3F5800F02D1FB6ABB6226
:1029E80052E0FB6A5B00314AA2FB03235B08BB622F
:1029F8004AE0FFF70DFEB86249E0FFF709FEB8624A
:102A080045E0274B1B6AFB61FB6903F44073B3F590
:102A1800807F08D1FB6903F00203002B03D04FF439
:102A28000043BB621FE0FB6903F44073B3F5007F0A
:102A380009D11B4B5B6A03F00203002B03D049F654
:102A48004043BB620FE0FB6903F44073B3F5407F7A
:102A58001CD1134B1B6803F40033002B16D04FF224
:102A68002443BB6212E011E0FFF752FE02460C4B12
:102A78005B689B0B03F0030301335B00B2FBF3F3CA
:102A8800BB6204E000BF02E000BF00E000BFBB6A19
:102A980018463437BD4690BDE4970008F4970008FF
:102AA8000010024000127A0000093D00ABAAAAAA51
:102AB80080B584B000AF78600023FB607B68002B92
:102AC80001D1012384E07B685B7CDBB2002B05D15C
:102AD8007B6800221A74786803F0CAFA7B680222BD
:102AE8005A74786800F0C8F90346002B04D07B6854
:102AF80004225A7401236BE0786800F081FA0346D7
:102B0800002B04D07B6804225A74012360E07B68A0
:102B18001B687A681268526822F007025A607B685C
:102B28009B68002B05D02C4A2B4B1B6B23F0010311
:102B380013632949284BDB6A23F460727B689B681E
:102B48001343CB627B685B68B3F1FF3F03D07B68BC
:102B58005B68FB600EE00120FFF7C2FEF860FB68CF
:102B6800002B04D17B6804225A74012330E0FB68EF
:102B7800013BFB607B681B687A681268926822F0E8
:102B88000F01FA68120C0A439A607B681A687B681E
:102B98001B68DB681B0C1B04F96889B20B43D36004
:102BA800786800F055FA0346002B04D07B680422AD
:102BB8005A7401230CE07B680022DA737B680122D7
:102BC8005A737B6801229A737B6801225A74002326
:102BD80018461037BD4680BD006C004090B587B0E0
:102BE80000AFF860B9607A6000237B6100233B6125
:102BF800FB68002B02D0BB68002B01D1012380E0C9
:102C0800FB681B7C012B01D102237AE0FB680122BF
:102C18001A74FB6802225A747B68002B13D1BB68B4
:102C28001B781A464FF4616303FB02F2BB685B78BA
:102C380019460B461B015B1A9B001344BA6892782D
:102C480013447B611EE0BB681B78184600F028FA25
:102C580003461A464FF4616303FB02F4BB685B78D2
:102C6800184600F01DFA03461A4613461B019B1A24
:102C78009B001C44BB689B78184600F011FA034679
:102C880023447B617969F86800F053F90346002B07
:102C980007D0FB6804225A74FB6800221A740123C7
:102CA8002FE0FB681B68FA681268526822F0050278
:102CB8005A60F86800F064F938613B69B3F1FF3F86
:102CC80018D03A697B699A4214D23B6903F5A83354
:102CD80003F5C0733B613969F86800F06AF9034687
:102CE800002B07D0FB6804225A74FB6800221A7470
:102CF800012306E0FB6801225A74FB6800221A745B
:102D0800002318461C37BD4690BD000080B588B02A
:102D180000AFF860B9607A600023FB610023BB61F3
:102D280000237B61FB68002B02D0BB68002B01D11C
:102D3800012397E0FB681B7C012B01D1022391E062
:102D4800FB6801221A74FB6802225A747B68002B04
:102D58000CD1BB68DA78FB68DA73BB685A78FB6811
:102D68005A73BB689A78FB689A731AE0BB68DB7879
:102D7800184600F095F903461A46FB68DA73BB68F3
:102D88005B78184600F08CF903461A46FB685A73BC
:102D9800BB689B78184600F083F903461A46FB681F
:102DA8009A73FB68DB7B1846FB68597BFB689B7B47
:102DB8001A4600F093F903461A46FB681A73FB6833
:102DC8001A7BBB681A70F86800F083F8F861FB6931
:102DD800264AA2FB0323DB0A7B617B69182B3AD9BD
:102DE8007B69234AA2FB03231B09224A02FB03F344
:102DF800FA69D31AFB61F969F86800F09AF8034692
:102E0800002B07D0FB6804225A74FB6800221A744E
:102E1800012327E0F86800F0B3F8B861BB69B3F1A3
:102E2800FF3F18D0BA69FB699A4214D2BB6903F50F
:102E3800A83303F5C073BB61B969F86800F0B9F845
:102E48000346002B07D0FB6804225A74FB68002253
:102E58001A74012306E0FB6801225A74FB680022F9
:102E68001A74002318462037BD4680BDC5B3A29109
:102E7800ABAAAAAA8051010080B584B000AF7860DF
:102E88000023FB607B68002B01D101231DE07B68D8
:102E98001B687A681268526822F008025A60FEF7C6
:102EA8002DF8F86009E0FEF729F80246FB68D31A06
:102EB800B3F57A7F01D9032307E07B681B685B6859
:102EC80003F00803002BEED0002318461037BD4648
:102ED80080BD80B487B000AF786000237B82002378
:102EE8003B820023FB8100237B617B681B689B6915
:102EF8007B827B681B68DB69FB817B681B689B693D
:102F08003B827A8A3B8A9A4208D03B8A1A047B68B9
:102F18001B68DB699BB213437B6104E07B8A1A045C
:102F2800FB8913437B617B6918461C37BD4680BC0F
:102F3800704780B584B000AF786039600023FB73B8
:102F4800786800F05DF80346002B02D00123FB737C
:102F580011E07B681B683A68120C9A617B681B68F1
:102F68003A6892B2DA61786800F072F80346002B8A
:102F780001D00123FB73FB7B18461037BD4680BD8B
:102F880080B485B000AF78600023FB810023BB814B
:102F98007B681B681B6AFB817B681B685B6ABB815B
:102FA800FB891A04BB89134318461437BD4680BCF5
:102FB800704780B584B000AF786039600023FB7338
:102FC800786800F01DF80346002B02D00123FB733C
:102FD80011E07B681B683A68120C1A627B681B68F0
:102FE8003A6892B25A62786800F032F80346002BC9
:102FF80001D00123FB73FB7B18461037BD4680BD0B
:1030080080B584B000AF78600023FB60FDF776FFE1
:10301800F86009E0FDF772FF0246FB68D31AB3F5C2
:103028007A7F01D903230FE07B681B685B6803F094
:103038002003002BEED07B681B687A681268526800
:1030480042F010025A60002318461037BD4680BD72
:1030580080B584B000AF78600023FB607B681B6894
:103068007A681268526822F010025A60FDF746FF2B
:10307800F86009E0FDF742FF0246FB68D31AB3F592
:103088007A7F01D9032307E07B681B685B6803F03C
:103098002003002BEED0002318461037BD4680BD14
:1030A80080B485B000AF0346FB710023FB60FB7959
:1030B8001B09DBB21A4613469B0013445B00FB60F6
:1030C800FB7903F00F03DAB2FB68DBB21344DBB21F
:1030D80018461437BD4680BC7047000080B485B0E0
:1030E80000AF78600B46FB701346BB700023BB60D3
:1030F8000023FB607B6803F5FA63BB60FB78022B57
:103108002DD8FA7813465B001344DB009B1A2C4A2F
:10311800A2FB03235A08BB781A44BB681A44BB684D
:10312800013B9B081A44BB68013B2649A1FB0313DA
:103138005B09D21ABB68013B2249A1FB0313DB09D7
:1031480013441A1D204BA3FB0213D11A49080B4440
:1031580099080B46DB005B1AD31AFB6029E0FA7862
:1031680013465B001344DB009B1A154AA2FB03239A
:103178005A08BB781A44BB681A44BB689B081A44AF
:10318800BB681049A1FB03135B09D21ABB680D4940
:10319800A1FB0313DB0913449A1C0B4BA3FB02137B
:1031A800D11A49080B4499080B46DB005B1AD31A5D
:1031B800FB60FB68DBB218461437BD4680BC70471D
:1031C800398EE3381F85EB512549922480B487B0A6
:1031D80000AFF860B9607A6000237B61074B7B61C0
:1031E800BB689B007A6913447B617B697A6892B2F9
:1031F8001A6000BF1C37BD4680BC7047006C004099
:1032080080B485B000AF786039600023FB6000238C
:10321800BB60084BFB603B689B00FA681344FB608B
:10322800FB681B689BB2BB60BB6818461437BD4679
:1032380080BC7047006C004080B582B000AF7860F9
:103248007B68002B01D101231DE07B6893F83D309A
:10325800DBB2002B06D17B68002283F83C2078681B
:1032680003F010FA7B68022283F83D207B681A6815
:103278007B6804331946104600F010FA7B68012277
:1032880083F83D20002318460837BD4680BD80B42A
:1032980085B000AF78607B681B687A681268D2686E
:1032A80042F00102DA607B681B689B6803F0070341
:1032B800FB60FB68062B07D07B681B687A6812687E
:1032C800126842F001021A60002318461437BD46FE
:1032D80080BC704780B582B000AF78607B681B689F
:1032E8001B6903F00203022B22D17B681B68DB6891
:1032F80003F00203022B1BD17B681B686FF00202EC
:103308001A617B6801221A777B681B689B6903F046
:103318000303002B03D0786800F0A4F905E078686F
:1033280000F097F9786800F0A6F97B6800221A7710
:103338007B681B681B6903F00403042B22D17B689C
:103348001B68DB6803F00403042B1BD17B681B6834
:103358006FF004021A617B6802221A777B681B6887
:103368009B6903F44073002B03D0786800F07AF966
:1033780005E0786800F06DF9786800F07CF97B6802
:1033880000221A777B681B681B6903F00803082B67
:1033980022D17B681B68DB6803F00803082B1BD16C
:1033A8007B681B686FF008021A617B6804221A7731
:1033B8007B681B68DB6903F00303002B03D0786884
:1033C80000F050F905E0786800F043F9786800F0FB
:1033D80052F97B6800221A777B681B681B6903F027
:1033E8001003102B22D17B681B68DB6803F01003E5
:1033F800102B1BD17B681B686FF010021A617B6869
:1034080008221A777B681B68DB6903F44073002B7A
:1034180003D0786800F026F905E0786800F019F91B
:10342800786800F028F97B6800221A777B681B68A7
:103438001B6903F00103012B0ED17B681B68DB6855
:1034480003F00103012B07D17B681B686FF00102B1
:103458001A61786803F06AF97B681B681B6903F0D6
:103468008003802B0ED17B681B68DB6803F0800328
:10347800802B07D17B681B686FF080021A6178681F
:1034880000F069FA7B681B681B6903F04003402B56
:103498000ED17B681B68DB6803F04003402B07D123
:1034A8007B681B686FF040021A61786800F0ECF8DE
:1034B8007B681B681B6903F02003202B0ED17B68F7
:1034C8001B68DB6803F02003202B07D17B681B688F
:1034D8006FF020021A61786800F034FA00BF0837EC
:1034E800BD4680BD80B584B000AF786039607B6828
:1034F80093F83C30012B01D10223A6E07B6801221E
:1035080083F83C207B68022283F83D207B681B6897
:103518009B68FB60FB6823F07703FB60FB6823F480
:103528007F43FB607B681B68FA689A603B681B688E
:10353800402B67D0402B0BD8102B73D0102B02D800
:10354800002B6FD078E0202B6CD0302B6AD073E042
:10355800702B0DD0702B04D8502B33D0602B41D05A
:103568006AE0B3F5805F66D0B3F5005F17D063E01B
:103578007B6818683B6899683B685A683B68DB68F1
:1035880000F07DF97B681B689B68FB60FB6843F073
:103598007703FB607B681B68FA689A604CE07B687D
:1035A80018683B6899683B685A683B68DB6800F0B4
:1035B80066F97B681B687A681268926842F48042F0
:1035C8009A6039E07B6818683B6859683B68DB6833
:1035D8001A4600F0DDF87B681B685021184600F099
:1035E80034F929E07B6818683B6859683B68DB68F0
:1035F8001A4600F0FBF87B681B686021184600F04B
:1036080024F919E07B6818683B6859683B68DB68EF
:103618001A4600F0BDF87B681B684021184600F088
:1036280014F909E07B681A683B681B68194610465C
:1036380000F00BF900E000BF7B68012283F83D2011
:103648007B68002283F83C20002318461037BD46CB
:1036580080BD80B483B000AF786000BF0C37BD4632
:1036680080BC704780B483B000AF786000BF0C376F
:10367800BD4680BC704780B483B000AF786000BF9F
:103688000C37BD4680BC704780B483B000AF78600B
:1036980000BF0C37BD4680BC7047000080B485B0C1
:1036A80000AF786039607B681B68FB607B68334AD1
:1036B800934213D07B68324A93420FD07B68B3F1B0
:1036C800804F0BD07B682F4A934207D07B682E4AE5
:1036D800934203D07B682D4A934208D1FB6823F0BC
:1036E8007003FB603B685B68FA681343FB607B68A8
:1036F800224A934213D07B68214A93420FD07B68B9
:10370800B3F1804F0BD07B681E4A934207D07B6889
:103718001D4A934203D07B681C4A934208D1FB6838
:1037280023F44073FB603B68DB68FA681343FB6073
:10373800FB6823F080023B685B691343FB607B688E
:10374800FA681A603B689A687B68DA623B681A68AC
:103758007B689A627B68094A934203D07B68084A6F
:10376800934203D13B681A697B681A637B6801221C
:103778005A6100BF1437BD4680BC7047002C014019
:10378800003401400004004000080040000C0040E4
:1037980080B487B000AFF860B9607A60FB681B6AD4
:1037A8007B61FB681B6A23F00102FB681A62FB68F5
:1037B8009B693B613B6923F0F0033B617B681B011C
:1037C8003A6913433B617B6923F00A037B617A6999
:1037D800BB6813437B61FB683A699A61FB687A6945
:1037E8001A6200BF1C37BD4680BC704780B487B0E2
:1037F80000AFF860B9607A60FB681B6A23F01002BA
:10380800FB681A62FB689B697B61FB681B6A3B610A
:103818007B6923F470437B617B681B037A691343DC
:103828007B613B6923F0A0033B61BB681B013A69DC
:1038380013433B61FB687A699A61FB683A691A62CB
:1038480000BF1C37BD4680BC704780B485B000AF50
:10385800786039607B689B68FB60FB6823F07003C5
:10386800FB603A68FB68134343F00703FB607B681F
:10387800FA689A6000BF1437BD4680BC704780B4B0
:1038880087B000AFF860B9607A603B60FB689B68FE
:103898007B617B6923F47F437B613B681A027B6809
:1038A8001A43BB6813437A6913437B61FB687A69DF
:1038B8009A6000BF1C37BD4680BC704780B485B095
:1038C80000AF786039607B6893F83C30012B01D1F8
:1038D800022332E07B68012283F83C207B680222C5
:1038E80083F83D207B681B685B68FB607B681B680E
:1038F8009B68BB60FB6823F07003FB603B681B6838
:10390800FA681343FB60BB6823F08003BB603B6825
:103918005B68BA681343BB607B681B68FA685A60C7
:103928007B681B68BA689A607B68012283F83D202F
:103938007B68002283F83C20002318461437BD46D4
:1039480080BC704780B483B000AF786000BF0C378C
:10395800BD4680BC704780B483B000AF786000BFBC
:103968000C37BD4680BC704780B582B000AF786028
:103978007B68002B01D101233FE07B6893F8393045
:10398800DBB2002B06D17B68002283F838207868E8
:1039980002F06AFF7B68242283F839207B681B6861
:1039A8007A681268D26822F40052DA60786800F007
:1039B800C7FC7B681B687A681268126922F4904217
:1039C8001A617B681B687A681268526922F02A02B9
:1039D8005A617B681B687A681268D26842F40052A0
:1039E800DA607B680022DA637B68202283F839205A
:1039F8007B68202283F83A20002318460837BD4602
:103A080080BD80B588B002AFF860B9603B601346EE
:103A1800FB8000237B61FB6893F83930DBB2202BF5
:103A280040F08280BB68002B02D0FB88002B01D1BC
:103A380001237AE0FB6893F83830012B01D1022387
:103A480073E0FB68012283F83820FB680022DA6300
:103A5800FB68212283F83920FDF750FA7861FB686A
:103A6800FA889A84FB68FA88DA8441E0FB68DB8C80
:103A78009BB2013B9AB2FB68DA84FB689B68B3F59A
:103A8800805F21D13B6800937B6900228021F86820
:103A980000F0D8FA0346002B01D0032345E0BB68A9
:103AA8003B61FB681B683A691288C2F308025A60D6
:103AB800FB681B69002B03D1BB680233BB6017E0AE
:103AC800BB680133BB6013E03B6800937B6900224D
:103AD8008021F86800F0B6FA0346002B01D00323D2
:103AE80023E0FB681A68BB68591CB9601B785360EF
:103AF800FB68DB8C9BB2002BB8D13B6800937B69D9
:103B080000224021F86800F09DFA0346002B01D0FE
:103B180003230AE0FB68202283F83920FB6800228F
:103B280083F83820002300E0022318461837BD46E2
:103B380080BD000080B586B000AFF860B96013465C
:103B4800FB80FB6893F83A30DBB2202B66D1BB6868
:103B5800002B02D0FB88002B01D101235FE0FB681A
:103B680093F83830012B01D1022358E0FB68012279
:103B780083F83820BA68FB689A62FB68FA889A85E5
:103B8800FB680022DA63FB68222283F83A20FB688C
:103B98005B6B254A9A62FB685B6B244ADA62FB68B6
:103BA8005B6B234A1A63FB685B6B00225A6307F15D
:103BB80008037B61FB68586BFB681B680433194674
:103BC8007B691A68FB88FDF77DFB00233B61FB6876
:103BD8001B681B683B61FB681B685B683B613B6952
:103BE800FB68002283F83820FB681B68FA681268B3
:103BF800D26842F48072DA60FB681B68FA6812685F
:103C0800526942F001025A61FB681B68FA6812683F
:103C1800526942F040025A61002300E0022318462C
:103C28001837BD4680BD00BF353F00089D3F0008DE
:103C3800B93F000880B584B000AF78600023FB600E
:103C48007B681B685B6903F08003002B14BF0123AA
:103C58000023DBB2FB607B6893F83930DBB2212BA1
:103C680016D1FB68002B13D07B681B687A68126832
:103C7800526922F080025A617B681B6B002B04D0CA
:103C88007B681B6B1846FDF77CFB786800F024FA0C
:103C98007B681B685B6903F04003002B14BF01239A
:103CA8000023DBB2FB607B6893F83A30DBB2222B4F
:103CB80016D1FB68002B13D07B681B687A681268E2
:103CC800526922F040025A617B685B6B002B04D07A
:103CD8007B685B6B1846FDF754FB786800F011FAB7
:103CE800002318461037BD4680BD000080B588B057
:103CF80000AF78607B681B681B68FB617B681B688A
:103D0800DB68BB617B681B685B697B6100233B6187
:103D18000023FB60FB6903F00F033B613B69002B49
:103D28000DD1FB6903F02003002B08D0BB6903F019
:103D38002003002B03D0786800F080FACCE03B69C0
:103D4800002B00F0AB807B6903F00103002B05D149
:103D5800BB6903F49073002B00F0A080FB6903F0AB
:103D68000103002B0AD0BB6903F48073002B05D034
:103D78007B68DB6B43F001027B68DA63FB6903F065
:103D88000403002B0AD07B6903F00103002B05D044
:103D98007B68DB6B43F002027B68DA63FB6903F044
:103DA8000203002B0AD07B6903F00103002B05D026
:103DB8007B68DB6B43F004027B68DA63FB6903F022
:103DC8000803002B0AD07B6903F00103002B05D000
:103DD8007B68DB6B43F008027B68DA637B68DB6B2C
:103DE800002B78D0FB6903F02003002B07D0BB69B8
:103DF80003F02003002B02D0786800F01FFA7B68DC
:103E08001B685B6903F04003002B14BF01230023E8
:103E1800DBB2FB607B68DB6B03F00803002B02D18D
:103E2800FB68002B31D0786800F06BF97B681B6861
:103E38005B6903F04003002B23D07B681B687A681A
:103E48001268526922F040025A617B685B6B002B52
:103E580013D07B685B6B224A5A637B685B6B18469E
:103E6800FDF7CAFA0346002B16D07B685B6B5B6BC9
:103E78007A68526B104698470EE0786800F04DF863
:103E88000AE0786800F049F806E0786800F045F83C
:103E98007B680022DA631EE000BF1CE0FB6903F0C8
:103EA8008003002B08D0BB6903F08003002B03D0EC
:103EB800786800F057F90FE0FB6903F04003002B26
:103EC8000AD0BB6903F04003002B05D0786800F0E6
:103ED8009DF900BF00E000BF2037BD4680BD00BF90
:103EE8004541000880B483B000AF786000BF0C374C
:103EF800BD4680BC704780B483B000AF786000BF17
:103F08000C37BD4680BC704780B483B000AF786082
:103F180000BF0C37BD4680BC704780B483B000AF8B
:103F2800786000BF0C37BD4680BC704780B584B050
:103F380000AF78607B685B6AFB607B681B681B6806
:103F480003F02003002B1ED1FB680022DA85FB68F2
:103F58001B68FA681268D26822F48072DA60FB681B
:103F68001B68FA681268526922F001025A61FB68FC
:103F78001B68FA681268526922F040025A61FB68AD
:103F8800202283F83A20F868FFF7B5FF00BF103702
:103F9800BD4680BD80B584B000AF78607B685B6A41
:103FA800FB60F868FFF7B0FF00BF1037BD4680BD63
:103FB80080B584B000AF78600023FB607B685B6AE3
:103FC800BB60BB681B685B6903F08003002B14BFF0
:103FD80001230023DBB2FB60BB6893F83930DBB206
:103FE800212B08D1FB68002B05D0BB680022DA849E
:103FF800B86800F071F8BB681B685B6903F04003A0
:10400800002B14BF01230023DBB2FB60BB6893F8CD
:104018003A30DBB2222B08D1FB68002B05D0BB68F5
:104028000022DA85B86800F06CF8BB68DB6B43F0F7
:104038001002BB68DA63B868FFF76FFF00BF10377C
:10404800BD4680BD80B584B000AFF860B9603B6004
:104058001346FB712CE0BB69B3F1FF3F28D0BB6965
:10406800002B07D0FCF74AFF02463B68D21ABB690F
:104078009A421DD9FB681B68FA681268D26822F454
:10408800D072DA60FB681B68FA681268526922F01D
:1040980001025A61FB68202283F83920FB6820223C
:1040A80083F83A20FB68002283F8382003230FE0C6
:1040B800FB681B681A68BB681A40BB689A420CBF49
:1040C80001230023DBB21A46FB799A42C3D00023AE
:1040D80018461037BD4680BD80B483B000AF786005
:1040E8007B681B687A681268D26822F0C002DA60BE
:1040F8007B68202283F8392000BF0C37BD4680BC7E
:10410800704780B483B000AF78607B681B687A68BA
:104118001268D26822F49072DA607B681B687A6849
:104128001268526922F001025A617B68202283F8E2
:104138003A2000BF0C37BD4680BC704780B584B0BC
:1041480000AF78607B685B6AFB60FB680022DA85F9
:10415800FB680022DA84F868FFF7DFFE00BF10373B
:10416800BD4680BD80B485B000AF78607B6893F8A9
:104178003930DBB2212B43D17B689B68B3F5805F74
:1041880019D17B681B6AFB607B681B68FA68128818
:10419800C2F308025A607B681B69002B05D17B6853
:1041A8001B6A9A1C7B681A620EE07B681B6A5A1CA1
:1041B8007B681A6208E07B681A687B681B6A581C6F
:1041C800796808621B7853607B68DB8C9BB2013B83
:1041D8009BB27A681946D184002B0FD17B681B6883
:1041E8007A681268D26822F08002DA607B681B68FD
:1041F8007A681268D26842F04002DA60002300E070
:10420800022318461437BD4680BC704780B582B07B
:1042180000AF78607B681B687A681268D26822F001
:104228004002DA607B68202283F839207868FFF73B
:1042380059FE002318460837BD4680BD80B584B0B6
:1042480000AF78607B6893F83A30DBB2222B71D1EB
:104258007B689B68B3F5805F23D17B689B6AFB60B2
:104268007B681B69002B0ED17B681B685B689BB25F
:10427800C3F308039AB2FB681A807B689B6A9A1C8E
:104288007B689A6229E07B681B685B689BB2DBB23B
:104298009AB2FB681A807B689B6A5A1C7B689A6290
:1042A8001BE07B681B69002B0AD17B689B6A591C41
:1042B8007A6891627A6812685268D2B21A700CE011
:1042C8007B689B6A591C7A6891627A68126852689E
:1042D800D2B202F07F02D2B21A707B68DB8D9BB239
:1042E800013B9BB27A681946D185002B20D17B68A7
:1042F8001B687A681268D26822F02002DA607B684C
:104308001B687A681268D26822F48072DA607B6867
:104318001B687A681268526922F001025A617B6848
:10432800202283F83A207868FFF7E5FD002302E0B1
:10433800002300E0022318461037BD4680BD000068
:1043480090B585B000AF78607B681B687A681268A2
:10435800126922F440517A68D2680A431A617B686C
:104368009A687B681B691A437B685B691343FB6027
:104378007B681A687B681B68DB6823F4B05323F0FA
:104388000C03F9680B43D3607B681B687A68126872
:10439800526922F440717A6892690A435A617B68CB
:1043A8001B68524A93424ED1FEF7B2F9B8607B6857
:1043B8001968BA6813469B0013449A001A447B682C
:1043C8005B689B00B2FBF3F3494AA2FB03235B093A
:1043D8001801BA6813469B0013449A001A447B6874
:1043E8005B689B00B2FBF3F2414BA3FB02435B0902
:1043F800642404FB03F3D31A1B0132333C4AA2FBA7
:1044080003235B0903F0F0031844BA6813469B00C2
:1044180013449A001A447B685B689B00B2FBF3F272
:10442800334BA3FB02435B09642404FB03F3D31A55
:104438001B0132332E4AA2FB03235B0903F00F034F
:1044480003448B604DE0FEF74FF9B8607B6819684C
:10445800BA6813469B0013449A001A447B685B6849
:104468009B00B2FBF3F3224AA2FB03235B0918016A
:10447800BA6813469B0013449A001A447B685B6829
:104488009B00B2FBF3F21A4BA3FB02435B096424C3
:1044980004FB03F3D31A1B013233154AA2FB03238F
:1044A8005B0903F0F0031844BA6813469B001344F1
:1044B8009A001A447B685B689B00B2FBF3F20C4BD2
:1044C800A3FB02435B09642404FB03F3D31A1B0117
:1044D8003233074AA2FB03235B0903F00F030344AB
:1044E8008B6000BF1437BD4690BD00BF0038014047
:1044F8001F85EB5180B582B000AF0023FB7110E03F
:1045080020210B48FDF7AEFC7D20FCF701FD2021A2
:104518000748FDF7A7FC7D20FCF7FAFCFB7901337F
:10452800FB71FB79072BEBD900BF0837BD4680BD6F
:104538000008014080B500AF00F010FA00F034FA2E
:1045480000F02CF900F044F900F028F900F05CF9CB
:1045580000F0A6F900F002F800BF80BD80B500AFFA
:10456800134B9B6A184600F0CDF900F0E3F9104BA5
:10457800DB6A184600F0C6F900F0DCF90C4B1B6B3F
:10458800184600F0BFF900F0D5F9094B5B6B1846E7
:1045980000F0B8F900F0CEF9054B9B6B184600F017
:1045A800B1F900F0C7F900F079F800BF80BD00BF8D
:1045B8000800002080B584B000AF2F4B7B602F4BE4
:1045C8003B600023FB600023BB602D4B1B78012B55
:1045D8004DD12B4B00221A702A4B5B6C184600F009
:1045E80091F9294B1B78002B0CD0274B00221A700D
:1045F8007968264803F017F9F860642200212348F7
:1046080002F07DFB1F4B9B6C184600F07BF91E4B9C
:104618001B78002B0CD01C4B00221A7039681B48E1
:1046280003F001F9B86064220021184802F067FB22
:10463800FB68002B05D0BB68002B02D000F04AF8BD
:1046480001E000F02BF8FCF759FC0246104B1A6009
:104658000F4B1A680F4B1B68D31A0F4A934206D99F
:1046680000F0C2F9C820FCF753FC01F0A2FC00BF1F
:104678001037BD4680BD00BF689A00088C9A0008B4
:104688000503002008000020580600205C060020D2
:104698000C03002008030020A0BB0D0080B500AF6C
:1046A8000A4BDB6B184600F02DF94FF47A70FCF7D3
:1046B8002FFC00F03FF9064800F024F94FF47A7017
:1046C800FCF726FC00F036F900BF80BD080000208A
:1046D800A002002080B584B000AF284BFB60284BB7
:1046E800BB60284B1B88BB8000F08AF93B1D19462C
:1046F800254803F081F8254BDB6C184600F002F9D9
:10470800234B1B78002B0FD0214B00221A70F9681D
:10471800204803F088F80346002B00D1EBE7642219
:1047280000211C4802F0EBFA174800F0EBF84FF4B0
:104738007A70FCF7EDFB164B1B78002B15D0144B49
:1047480000221A70B968134803F06DF80346002B6D
:1047580006D0FCF7D3FB02460F4B1A60FFF7CAFEE0
:10476800642200210B4802F0CAFAC8220021064838
:1047780002F0C5FA00BF1037BD4680BD9C9A0008FC
:10478800A09A0008A89A000810030020080000203A
:10479800580600205C0600200803002080B500AF02
:1047A800012240210948FDF745FB40F6C410FCF7FB
:1047B800AFFB002240210548FDF73CFB4FF47A701F
:1047C800FCF7A6FB00F0B6F800BF80BD0010014062
:1047D80080B500AF0B4B9B68184600F093F800F0CB
:1047E800A9F8084BDB68184600F08CF800F0A2F82E
:1047F800044B1B69184600F085F800F09BF800BFD1
:1048080080BD00BF0800002080B582B000AF1E4BFD
:104818003B6000237B601D4B5B69184600F072F813
:1048280000F088F81A48FDF76EFB4FF47A70FCF731
:104838006FFB164B1B6A184600F064F8154B1B7883
:10484800002B0FD0134B00221A703968124802F05F
:10485800EAFF7860642200210F4802F050FA0F4BFB
:1048680000221A707B68002BDCD00C4B01221A70D6
:10487800064B9B69184600F045F800F05BF800BF4E
:104888000837BD4680BD00BFAC9A0008080000206C
:1048980004040020580600205C06002004030020C1
:1048A80080B582B000AF134B5B6A184600F02AF857
:1048B800114B1B78002B18D00023FB710AE0FB7901
:1048C800FA7909320C490A4411790C4AD154FB7916
:1048D8000133FB71FB790E2BF1D9074B00221A70BB
:1048E80064220021064802F00AFA00BF0837BD46D4
:1048F80080BD00BF08000020580600207402002078
:104908005C06002080B582B000AF78607868FBF75D
:1049180087FC03469AB2642379680548FFF771F863
:104928006420FCF7F5FA00BF0837BD4680BD00BF1C
:104938006C05002080B500AF064B1B78002B07D014
:10494800044B00221A7064220021034802F0D7F9B0
:1049580000BF80BD580600205C06002098B500AF57
:10496800FCF7F8FA034608220B490C4802F0F4FE5B
:104978000B4CFCF7F9FA034608220749204602F0D7
:10498800EBFE084CFCF7FAFA0346082202492046D7
:1049980002F0E2FE00BF98BDB89A00088402002029
:1049A8008C0200209402002080B582B000AF0A4B30
:1049B8007B600A4B3B607968094802F02CFF094983
:1049C800074802F019FF3968054802F015FF00BFD3
:1049D8000837BD4680BD00BFC09A0008D09A0008BD
:1049E800A00200208402002080B500AF01224021EF
:1049F8000248FDF71FFA00BF80BD00BF001001404C
:104A080080B5B4B000AF3B1DC8220021184602F0A3
:104A180076F901F059F9C7F8CC00D7F8CC30002B5B
:104A280004D1D7F8CC0000F033FB22E0D7F8CC0053
:104A380000F024F8391D0023C822D7F8CC0000F074
:104A4800E7FD0346002B04D03B1D19460A4802F037
:104A5800E2FE6420FCF75CFAD7F8CC0000F018FB03
:104A68000023C7F8CC303B1DC8220021184602F0AD
:104A780046F9D037BD4680BD1003002080B582B00E
:104A880000AF7860002300221949786800F044F8E4
:104A9800184A1949786800F06DF81849786800F0E4
:104AA8009DF8174B1B681A461649786800F072F88B
:104AB800134B5B681A461449786800F06BF8104B82
:104AC8009A6800231149786800F026F80C4BDA68D8
:104AD80000230F49786800F01FF8094B1B691A4634
:104AE8000C49786800F056F800BF0837BD4680BD0D
:104AF800E89A000874020020F49A0008FC9A00085A
:104B0800F0030020089B0008109B0008189B000871
:104B1800209B0008289B000880B586B000AFF8608D
:104B2800B9607A60FB7007F1100300221A605A60BE
:104B3800FB78002B07D007F110037A680B49184659
:104B480002F00AFE06E007F110037A6808491846E1
:104B580002F002FE07F110031A46B968F86801F07E
:104B68006BF800BF1837BD4680BD00BF309B0008FA
:104B7800389B000880B584B000AFF860B9607A60EF
:104B88007A68B968F86801F057F800BF1037BD4671
:104B980080BD000090B587B000AFF860B9607A605A
:104BA80007F1100300221A605A607868FBF7A4FC2A
:104BB80003460C4607F110001A462346064902F040
:104BC800CBFD07F110031A46B968F86801F034F80C
:104BD80000BF1C37BD4690BD409B0008F0B597B09C
:104BE80004AF7860396007F12C0300221A605A601C
:104BF8009A60DA601A615A611A83514B1B68184629
:104C0800FFF780FEFFF796FE4D4B5B681846FFF7EF
:104C180079FE4C4B1B78002B6BD04A4BDB7D87F819
:104C28002030484B1B7E87F82130464B9B7E3B77D4
:104C3800444BDB7E7B77434B5B7F3B76414B9B7FD3
:104C48007B76404B93F820303B753E4B93F82130F0
:104C58007B753C4B93F823303B743A4B93F82430E4
:104C68007B74384B93F826303B73364B93F82730D8
:104C78007B7307F12003184601F0D3FF0346DBB22C
:104C880087F8273007F11C03184601F0CAFF0346CE
:104C9800DBB287F8253007F11803184601F0C1FF89
:104CA8000346DBB287F8263007F11403184601F0F3
:104CB800B8FF0346DBB20833DBB287F8283007F1C8
:104CC8001003184601F0ADFF0346DBB287F8293020
:104CD80007F10C03184601F0A4FF0346DBB287F87E
:104CE8002A30184B00221A7064220021164802F05C
:104CF80006F897F8273003F5FA6297F825301E462C
:104D080097F8263097F8281097F82900044697F85E
:104D18002A00054607F12C0003950294019100939F
:104D280033460A4902F018FD07F12C031A46396880
:104D3800786800F081FF00BF4C37BD46F0BD00BF6A
:104D480008000020580600205C060020489B000848
:104D580080B500AF0C4B1B78012B12D10A4B0022F7
:104D68001A700A490A4800F01BF80849094800F077
:104D780017F80649084800F013F80449074800F0F6
:104D88000FF800BF80BD00BFD8030020F00300204B
:104D980058000020600000206800002070000020FB
:104DA80090B585B000AF78603960012000F0E2F876
:104DB8000520FCF7ADF8FF23082279686548FEF75F
:104DC80020FE002000F0D6F86420FCF7A1F8624B22
:104DD8001B78012B40F0BB807B68604A934215D159
:104DE8005D4B5B88072B40F0AB805B4B5B7A1B020B
:104DF8001AB2594B9B7A1BB213431BB2FB81052194
:104E0800574800F0D5F80346BB8114E0524B5B8845
:104E1800092B40F09780504BDB7A1B021AB24E4B9D
:104E28001B7B1BB213431BB2FB8107214C4800F0CC
:104E3800BFF80346BB81FA89BB899A4240F0848057
:104E48007B68484A93422ED1434B5B7A1B02424A05
:104E5800927A13431846FBF73DFB4FF00002424B92
:104E6800FBF7C8FC03460C4618462146FBF770FEC4
:104E780002463B681A60384BDB791B02364A127AC5
:104E880013431846FBF726FB4FF00002364BFBF79F
:104E9800B1FC03460C4618462146FBF759FE02466C
:104EA8003B685A6043E07B68304A93420FD12A4BF3
:104EB8009B7A3B72284B5B7A7B72274B1B7ABB72BF
:104EC800254BDB79FB72BA683B689A602FE07B68F8
:104ED800274A934210D1204B5B7A1B021E4A927AD2
:104EE80013431846FBF73EFF03461846FBF78EFFB1
:104EF80002463B68DA601AE07B68184A934225D17B
:104F0800154BDB791B02144A127A13431846FBF738
:104F1800E1FA4FF00002144BFBF76CFC03460C4619
:104F280018462146FBF714FE02463B681A610A4BF5
:104F380000221A7064220021094801F0E0FE06E010
:104F480000BF04E000BF02E000BF00E000BF14376C
:104F5800BD4690BDC0060020AC05002070000020B2
:104F6800B005002058000020000024406000002008
:104F78006800002080B582B000AF0346FB71FB7962
:104F8800012B05D101224FF480710848FCF752FF2C
:104F9800FB79002B05D100224FF480710348FCF700
:104FA80049FF00BF0837BD4680BD00BF0010014063
:104FB80080B485B000AF78600B46FB70FF23FB73AD
:104FC800FF23BB7310E07B685A1C7A601A78FB7B5E
:104FD80053407B737B7B0D4AD25CBB7B5340FB7396
:104FE8007B7B0B4AD35CBB73FB785A1EFA70002B91
:104FF800E9D1FB7B1B021AB2BB7B1BB213431BB26A
:105008009BB218461437BD4680BC7047B89B000851
:10501800B89C000880B584B000AF78603960002380
:10502800FB600023BB607B68002B01D1002315E0E7
:105038007868FBF7F5F803460133FB603B681B68AB
:10504800F8689847B860BB68002B01D1002305E0D9
:10505800FA687968B86801F047FEBB6818461037E7
:10506800BD4680BD80B584B000AF78607B681B68A2
:1050780028209847F860FB68002B04D028220021DC
:10508800F86801F03CFEFB6818461037BD4680BD45
:1050980080B584B000AF78600023FB6037E07B68A0
:1050A8001B68FB607B68DB6803F48073002B08D106
:1050B8007B689B68002B04D07B689B681846FFF7C9
:1050C800E7FF7B68DB6803F48073002B09D17B68FA
:1050D8001B69002B05D0114B5B687A681269104672
:1050E80098477B68DB6803F40073002B09D17B6861
:1050F8001B6A002B05D0094B5B687A68126A104658
:105108009847064B5B6878689847FB687B607B68C4
:10511800002BC4D100BF1037BD4680BD78000020E9
:1051280080B400AF2E231846BD4680BC704780B5BA
:1051380084B000AF786039600023FB600023BB6057
:105148007B68002B03D07B681B68002B01D10023F0
:1051580086E07B685B68002B07D07B689A687B6871
:105168005B689A4201D300237AE03B68002B01DA9E
:10517800002375E07B689A683B68134401333B6001
:105188007B685A683B689A4205D37B681A687B68D3
:105198009B68134464E07B681B69002B01D00023E3
:1051A8005EE03B68B3F1804F08D33B68002B03DB1C
:1051B8006FF00043BB6004E0002351E03B685B00F4
:1051C800BB607B681B6A002B18D07B681B6A7A68F7
:1051D8001268B96810469847F860FB68002B35D10B
:1051E8007B68DB697A681268104698477B680022FA
:1051F8005A607B6800221A60002331E07B689B6953
:10520800B8689847F860FB68002B0DD17B68DB69AC
:105218007A681268104698477B6800225A607B6853
:1052280000221A6000231BE0FB68002B08D07B6873
:1052380019687B689B6801331A46F86801F054FDC9
:105248007B68DB697A681268104698477B68BA6899
:105258005A607B68FA681A607B689B68FA6813442E
:1052680018461037BD4680BD90B585B000AF786050
:105278000023FB607B68002B13D07B681B68002B26
:105288000FD07B681A687B689B681344FB607B6857
:105298009C68F868FAF7C4FF0346E2187B689A60CE
:1052A80000E000BF1437BD4690BD000090B593B034
:1052B80000AF786039600023FB637B6803F1180452
:1052C800D4E90034C7E90C3400237B6400233B6431
:1052D800FFF726FF034687F82F303B68002B01D1E4
:1052E800002385E04FF000024FF00003D7E90C01DE
:1052F800FBF756F903460C46184621464FF00002C4
:105308004FF00003FBF7B4FB0346002B0AD107F16B
:105318001403394A92E8030018600433197004230F
:105328007B6423E007F11400D7E90C23334902F02A
:1053380013FA786407F1080207F114033049184694
:1053480002F02EFA0346012B08D1D7E90201D7E96A
:105358000C23FBF78DFB0346002B07D107F1140044
:10536800D7E90C23274902F0F7F978647B6C002B06
:1053780002DB7B6C192B01DD002339E07B6C0133E8
:1053880019463868FFF7D3FEF863FB6B002B01D191
:1053980000232DE000233B641AE007F114023B6C64
:1053A80013441B7897F82F209A4205D1FA6B3B6C6F
:1053B80013442E221A7008E0FA6B3B6C134407F171
:1053C80014013A6C0A4412781A703B6C01333B643E
:1053D8007B6C3A6C9A42E0D3FA6B3B6C1344002224
:1053E8001A703B689A687B6C1A443B689A60012380
:1053F80018464C37BD4690BD709B0008789B000846
:10540800809B0008849B000880B588B000AF786056
:1054180039600023FB6100233B610023BB6100234B
:10542800FB6000237B613B68002B01D10023D7E0A0
:105438007B68002B11D103213868FFF778FE3861AB
:105448003B69002B01D10023CAE03B69664A1188F9
:10545800927819809A700123C2E07B68FB611CE096
:10546800FB691B780D2B05DC0C2B07DA083B022B9C
:1054780008D803E0222B01D05C2B03D17B690133D0
:105488007B6107E0FB691B781F2B02D87B6905331A
:105498007B6100BFFB690133FB61FB691B78002B53
:1054A800DED1FA697B68D31A1A467B691344FB601C
:1054B800FB68033319463868FFF739FE38613B69E2
:1054C800002B01D100238BE07B69002B17D13B69AE
:1054D80022221A703B690133FA687968184601F08C
:1054E80003FCFB6801333A69134422221A70FB68F3
:1054F80002333A69134400221A70012370E03B69B1
:1055080022221A703B690133BB617B68FB6156E05C
:10551800FB691B781F2B0CD9FB691B78222B08D041
:10552800FB691B785C2B04D0FB691A78BB691A707D
:105538003FE0BB695A1CBA615C221A70FB691B7890
:105548000C2B1BD00C2B06DC092B23D00A2B19D0D3
:10555800082B0FD022E0222B08D05C2B02D00D2B79
:1055680014D01BE0BB695C221A7022E0BB692222BE
:105578001A701EE0BB6962221A701AE0BB696622C3
:105588001A7016E0BB696E221A7012E0BB697222AB
:105598001A700EE0BB6974221A700AE0FB691B7866
:1055A8001A461249B86902F0D7F8BB690433BB61DF
:1055B80000BFFB690133FB61BB690133BB61FB6958
:1055C8001B78002BA4D1FB6801333A6913442222CB
:1055D8001A70FB6802333A69134400221A700123D7
:1055E80018462037BD4680BD8C9B0008909B00085C
:1055F80080B582B000AF786039607B681B69396814
:105608001846FFF701FF034618460837BD4680BD18
:1056180080B58EB000AFF860B9607A603B6007F182
:10562800140324220021184601F069FB7B68002B33
:1056380002DBBB68002B01D1002316E0BB687B614D
:105648007B68BB610023FB6101237B623B68BB6213
:10565800084A07F12C0307CA83E8070007F1140377
:105668001946F86800F008F8034618463837BD466A
:1056780080BD00BF7800002080B584B000AF78609E
:1056880039600023FB607B68002B02D03B68002B4D
:1056980001D100238BE07B68DB68DBB2082B4AD0A2
:1056A800082B06DC022B34D0042B0ED0012B1ED085
:1056B8007CE0202B6ED0202B02DC102B64D075E010
:1056C800402B6DD0802B3CD070E005213868FFF767
:1056D8002EFDF860FB68002B01D1002367E0FB6812
:1056E800354A1068186012791A7101235FE00621A3
:1056F8003868FFF71CFDF860FB68002B01D1002318
:1057080055E0FB682D4A1068186092889A8001233A
:105718004DE005213868FFF70AFDF860FB68002BAB
:1057280001D1002343E0FB68254A1068186012790C
:105738001A7101233BE039687868FFF7B7FD034623
:1057480035E00023BB607B681B69002B01D1002377
:105758002DE07B681B691846FAF762FD03460133A2
:10576800BB60B9683868FFF7E2FCF860FB68002B9B
:1057780001D100231BE07B681B69BA681946F868E9
:1057880001F0B2FA012312E039687868FFF730FFB8
:1057980003460CE03968786800F014F8034606E020
:1057A8003968786800F094F8034600E0002318464A
:1057B8001037BD4680BD00BF709B00089C9B000849
:1057C800A49B000880B586B000AF786039600023DC
:1057D8007B610023FB607B689B683B613B68002B17
:1057E80001D1002370E001213868FFF7A0FC78613F
:1057F8007B69002B01D1002366E07B695B221A706C
:105808003B689B685A1C3B689A603B68DB685A1C7B
:105818003B68DA603DE039683869FFF72DFF0346D9
:10582800002B01D100234FE03868FFF71DFD3B69CD
:105838001B68002B2AD03B685B69002B01D0022330
:1058480000E00123FB60FB68013319463868FFF765
:105858006EFC78617B69002B01D1002334E07B6901
:105868005A1C7A612C221A703B685B69002B04D0A1
:105878007B695A1C7A6120221A707B6900221A708F
:105888003B689A68FB681A443B689A603B691B68E6
:105898003B613B69002BBED102213868FFF747FC0A
:1058A80078617B69002B01D100230DE07B695A1CCC
:1058B8007A615D221A707B6900221A703B68DB6886
:1058C8005A1E3B68DA60012318461837BD4680BD6A
:1058D80080B588B000AF786039600023FB61002391
:1058E800FB607B689B68BB613B68002B01D1002390
:1058F80009E13B685B69002B01D0022300E001232A
:10590800FB60FB68013319463868FFF710FCF86143
:10591800FB69002B01D10023F5E0FB695A1CFA61F1
:105928007B221A703B68DB685A1C3B68DA603B686C
:105938005B69002B04D0FB695A1CFA610A221A70B1
:105948003B689A68FB681A443B689A60A1E03B6828
:105958005B69002B22D03B68DB6819463868FFF783
:10596800E6FBF861FB69002B01D10023CBE00023A3
:105978007B6107E0FB695A1CFA6109221A707B698E
:1059880001337B613B68DA687B699A42F2D83B68ED
:105998009A683B68DB681A443B689A60BB691B6A73
:1059A80039681846FFF730FD0346002B01D1002364
:1059B800A9E03868FFF758FC3B685B69002B01D009
:1059C800022300E00123FB60F9683868FFF7AFFBAA
:1059D800F861FB69002B01D1002394E0FB695A1C94
:1059E800FA613A221A703B685B69002B04D0FB69A4
:1059F8005A1CFA6109221A703B689A68FB681A44B3
:105A08003B689A603968B869FFF736FE0346002B91
:105A180001D1002377E03868FFF726FC3B685B6913
:105A2800002B14BF01230023DBB21A46BB691B6895
:105A3800002B14BF01230023DBB21344FB60FB6877
:105A4800013319463868FFF772FBF861FB69002BD0
:105A580001D1002357E0BB691B68002B04D0FB6908
:105A68005A1CFA612C221A703B685B69002B04D01F
:105A7800FB695A1CFA610A221A70FB6900221A7023
:105A88003B689A68FB681A443B689A60BB691B6864
:105A9800BB61BB69002B7FF45AAF3B685B69002B85
:105AA80003D03B68DB68013300E0022319463868FD
:105AB800FFF73DFBF861FB69002B01D1002322E0D1
:105AC8003B685B69002B10D000233B6107E0FB6952
